{
  "transactions": [
    {
      "hash": "0xc90320094dc56f4636673651703d500f731d128a8a79cd8c4930fc68925e7e19",
      "transactionType": "CALL",
      "contractName": "OCXToken",
      "contractAddress": "0x0d30a0d0d4de399ed862d0509817ade64b7d2ea9",
      "function": "setTransferAgent(address,bool)",
      "arguments": [
        "0x176BAf2A98F341d85Ad1c52b3c33ec66311c77AE",
        "true"
      ],
      "transaction": {
        "from": "0x4bb3a5578000671d09a0d5376d3db992637ca2d0",
        "to": "0x0d30a0d0d4de399ed862d0509817ade64b7d2ea9",
        "gas": "0x10b30",
        "value": "0x0",
        "input": "0x02f652a3000000000000000000000000176baf2a98f341d85ad1c52b3c33ec66311c77ae0000000000000000000000000000000000000000000000000000000000000001",
        "nonce": "0x29",
        "chainId": "0xaa36a7"
      },
      "additionalContracts": [],
      "isFixedGasLimit": false
    }
  ],
  "receipts": [
    {
      "status": "0x1",
      "cumulativeGasUsed": "0x848e01",
      "logs": [],
      "logsBloom": "0x00000000000000000000000000000000000000000000000000000000000000000000000000000000000000000000000000000000000000000000000000000000000000000000000000000000000000000000000000000000000000000000000000000000000000000000000000000000000000000000000000000000000000000000000000000000000000000000000000000000000000000000000000000000000000000000000000000000000000000000000000000000000000000000000000000000000000000000000000000000000000000000000000000000000000000000000000000000000000000000000000000000000000000000000000000000",
      "type": "0x0",
      "transactionHash": "0xc90320094dc56f4636673651703d500f731d128a8a79cd8c4930fc68925e7e19",
      "transactionIndex": "0x52",
      "blockHash": "0xb03ca60fd65475e18290f41ad1730911037faded9520a6fbe5294a2258178e4e",
      "blockNumber": "0x9c3c02",
      "gasUsed": "0xb6b2",
      "effectiveGasPrice": "0x40e7539f",
      "from": "0x4bb3a5578000671d09a0d5376d3db992637ca2d0",
      "to": "0x0d30a0d0d4de399ed862d0509817ade64b7d2ea9",
      "contractAddress": null
    }
  ],
  "libraries": [],
  "pending": [],
  "returns": {},
  "timestamp": 1770819757,
  "chain": 11155111,
  "commit": "b4573a3"
}